S00F000030372D756172742E73726563C5
S11300000C9434000C9451000C9451000C94510045
S11300100C9451000C9451000C9451000C94510018
S11300200C9451000C9451000C9451000C94510008
S11300300C9451000C944C010C9451000C945100FC
S11300400C9451000C9451000C943E020C946C02DC
S11300500C9451000C9461010C9451000C945100C7
S11300600C9451000C94510011241FBECFEFD8E022
S1130070DEBFCDBF11E0A0E0B1E0E4E1F6E002C0F4
S113008005900D92AE34B107D9F721E0AEE4B1E0AA
S113009001C01D92A339B207E1F70E94F6000C9447
S11300A008030C940000299A85E08A95F1F7000072
S11300B029980895CF93C82F662311F0289A01C078
S11300C02898549A559A569A579A5F985E985D98CC
S11300D05C98CC230CF45F9AC6FD5E9AC5FD5D9ACC
S11300E0C4FD5C9A0E9453005F985E985D985C988A
S11300F0C3FD5F9AC2FD5E9AC1FD5D9AC0FD5C9A24
S11301000E9453005C9A5D9A5E9A5F9A87EB9BE02B
S11301100197F1F700C00000CF91089560E00E94BC
S11301205A000895611104C080580E948E000895F9
S113013080540E948E00089581E00E948E000895EC
S113014061E00E945A000895CF93DF93EC01219659
S1130150FC018081882329F00E94A00089918111EB
S1130160FBCFDF91CF910895CF93C82F209A559A52
S1130170219A549A559A569A579A8FEF99EF019764
S1130180F1F700C000005D9A5C9A0E9453008FE171
S11301909EE40197F1F700C000000E9453008FEF26
S11301A090E00197F1F700C000000E9453008FEF28
S11301B090E00197F1F700C000005C980E945300A2
S11301C08FEF90E00197F1F700C0000088E20E94F1
S11301D08E0088E00E948E000E949C0086E00E94AF
S11301E08E008C2F0E948E00CF9108958CE00E9487
S11301F0B40060E081E00E94920080E091E00E94FF
S1130200A40061E083E00E94920087E091E00E94F4
S1130210A400ECE7F0E080818064808380818F77A4
S113022080838081877F808380818B7F80838081AE
S11302308D7F808380818E7F8083EAE7F0E08081F8
S113024080688083808188608083808184608083EB
S1130250808182608083808181608083EBE7F0E02D
S113026080818460808380818260808380818E7FAE
S11302708083EFE6F0E0808181608083E1E8F0E054
S113028080818B7F808380818360808387E690E098
S11302900E9496027894FFCF1F920F920FB60F928E
S11302A011248F93EF93FF93EAE7F0E08081806459
S11302B08083FF91EF918F910F900FBE0F901F904D
S11302C018951F920F920FB60F9211240F931F933C
S11302D02F933F934F935F936F937F938F939F934A
S11302E0AF93BF93EF93FF93CF93DF93CDB7DEB775
S11302F02597DEBFCDBF00917800109179004AE0C8
S1130300BE016F5F7F4FC8010E94D30260E088E0A6
S11303100E9492008CE091E00E94A40060E088E0DA
S11303200E949200CE0101960E94A4000C3B82E040
S1130330180760F484E191E00E94C402CE010196A2
S11303400E94C4028BE291E00E94C402093E83E051
S1130350180780F061E088E00E9492008CE091E050
S11303600E94A40061E088E00E9492008EE291E085
S11303700E94A400C801895592408336910580F4F7
S113038061E088E00E9492008CE091E00E94A40069
S113039061E088E00E94920083E391E00E94A4005F
S11303A0C8018F5591408336910580F461E088E05F
S11303B00E9492008CE091E00E94A40061E088E039
S11303C00E9492008AE391E00E94A400C801895C23
S11303D091098336910580F461E088E00E949200DF
S11303E08CE091E00E94A40061E088E00E94920009
S11303F08FE391E00E94A400C801C397833691055E
S113040080F461E088E00E9492008CE091E00E9418
S1130410A40061E088E00E94920084E491E00E94DC
S1130420A4000233110580F461E088E00E94920088
S11304308CE091E00E94A40061E088E00E949200B8
S113044087E491E00E94A4000F900F900F900F900A
S11304500F90DF91CF91FF91EF91BF91AF919F9159
S11304608F917F916F915F914F913F912F911F9148
S11304700F910F900FBE0F901F9018951F920F921F
S11304800FB60F9211242F938F939F93EF93FF93A3
S11304908091C0002091C6008C71E0915001EF5F03
S11304A0EF7190914F01E91739F0E0935001F0E0BA
S11304B0ED5AFE4F208301C082E090914E01892BBA
S11304C080934E01FF91EF919F918F912F910F9007
S11304D00FBE0F901F9018951F920F920FB60F9298
S11304E011248F939F93EF93FF93909152018091E6
S11304F05101981769F0E0915101EF5FEF71E093BA
S11305005101F0E0ED58FE4F80818093C60005C094
S1130510E1ECF0E080818F7D8083FF91EF919F91EA
S11305208F910F900FBE0F901F901895109252014B
S1130530109251011092500110924F0199231CF412
S113054022E02093C00090789093C5008093C4006B
S113055088E98093C10086E08093C20008952091C9
S113056052012F5F2F71909151012917E1F3E22F6E
S1130570F0E0ED58FE4F808320935201E1ECF0E06F
S11305808081806280830895CF93DF93EC0188811A
S1130590882331F021960E94AF0289918111FBCF0B
S11305A0DF91CF910895BB274A3031F4992322F487
S11305B0BDE2909581959F4F0C94DF02BB27FB0110
S11305C05527AA27880F991FAA1FA41710F0A41B48
S11305D083955051B9F7A05DAA3308F0A95DA193A2
S11305E0009779F7B111B1931192CB010C94F802F1
S11305F0DC01FC01672F71917723E1F7329704C086
S11306007C916D9370836291AE17BF07C8F3089510
S1070610F894FFCF88
S113061476616C75653A006B65793A002020202078
S1130624202020004144432076616C756520696E66
S113063420646563696D616C3A20000A0D006E6F75
S11306446E650053656C656374004C6566740044A0
S11106546F776E00557000526967687400007D
S9030000FC
