S02000005061726B696E67417373697374616E745F48432D535230342E737265635E
S11300000C94B5000C945B010C9414010C94D20074
S11300100C94D2000C94D2000C94D2000C94D20014
S11300200C94D2000C94D2000C94D2000C94D20004
S11300300C94D2000C94D2000C94D2000C94D200F4
S11300400C94D2000C94D2000C9408030C94360344
S11300500C94D2000C94D2000C94D2000C94D200D4
S11300600C94D2000C94D2006E616E00696E66002E
S113007000407A10F35A00A0724E18090010A5D45B
S1130080E80000E87648170000E40B54020000CAB8
S11300909A3B000000E1F5050000809698000000FE
S11300A040420F000000A08601000000102700005D
S11300B00000E803000000006400000000000A00E3
S11300C0000000000100000000002C76D888DC67E6
S11300D04F0823DFC1DFAE59E1B1B796E5E3E4533E
S11300E0C63AE651997696E8E6C28426EB898C9B5B
S11300F062ED407C6FFCEFBC9C9F40F2BAA56FA5FB
S1130100F490055A2AF75C936B6CF9676DC11BFC7C
S1130110E0E40D47FEF520E6B500D0ED902E030097
S1130120943577050080841E080000204E0A0000E4
S113013000C80C333333330F986E12831141EF8DA3
S11301402114893BE65516CFFEE6DB18D1844B38E3
S11301501BF77C1D901DA4BBE424203284725E2214
S11301608100C9F124ECA1E53D2711241FBECFEF86
S1130170D8E0DEBFCDBF11E0A0E0B1E0E0E0F6E101
S113018002C005900D92AC32B107D9F721E0ACE280
S1130190B1E001C01D92AA37B207E1F70E944502FF
S11301A00C94FE0A0C940000FC01408121E030E034
S11301B002C0220F331F6A95E2F7242B208308958F
S11301C0FC01808121E030E002C0220F331F6A95D8
S11301D0E2F72095822380838081818128232183F3
S11301E00895FC01908121E030E002C0220F331F0A
S11301F06A95E2F72095292320830895FC01408124
S113020021E030E002C0220F331F6A95E2F7242B6D
S113021020830895FC01808190E002C09595879524
S11302206A95E2F7817008951F920F920FB60F92AC
S113023011242F933F934F935F936F937F938F93E7
S11302409F93AF93BF93EF93FF93609130017091AD
S11302503101809132019091330120E030E040E897
S11302605FE30E949E036093300170933101809399
S113027032019093330163E089E290E00E940A0125
S11302808111E3CF809134018F5F8093340181E049
S113029080930101FF91EF91BF91AF919F918F9155
S11302A07F916F915F914F913F912F910F900FBE6E
S11302B00F901F9018951F920F920FB60F92112452
S11302C02F933F934F935F936F937F938F939F935A
S11302D0AF93BF93EF93FF9360912C0170912D0125
S11302E080912E0190912F0120E030E040E85FE3FF
S11302F00E949E0360932C0170932D0180932E0124
S113030090932F0162E089E290E00E940A0181113A
S1130310E3CF809134018F5F8093340181E0809337
S11303200101FF91EF91BF91AF919F918F917F91C7
S11303306F915F914F913F912F910F900FBE0F904E
S11303401F9018954F925F926F927F928F929F9217
S1130350AF92BF92CF92DF92EF92FF920F931F93CF
S1130360CF93DF93CDB7DEB7E2970FB6F894DEBF35
S11303700FBECDBF4B015C0169017A018FE39CE99B
S11303800197F1F700C00000602F70E080E090E07A
S11303900E9483042B013C019B01AC01C501B40103
S11303A00E940F044B015C01A3019201C701B60135
S11303B00E940F042B013C0125EF37E64FE35EE377
S11303C0C501B4010E943305D62EC72EB82EA92E1E
S11303D025EF37E64FE35EE3C301B2010E94330524
S11303E0162F072FF82EE92E20E030E040E251E4EA
S11303F00E940A04882364F020E030E040E251E4E3
S11304006D2D7C2D8B2D9A2D0E940A04882334F4A3
S113041064E085E290E00E94FE0005C064E085E2AD
S113042090E00E94F100AF92BF92CF92DF92EF92E0
S1130430FF920F931F9382E091E09F938F938E011D
S11304400F5F1F4F1F930F930E947E0AC8010E94E3
S11304508E030FB6F894DEBF0FBECDBFE2960FB683
S1130460F894DEBF0FBECDBFDF91CF911F910F91E6
S1130470FF90EF90DF90CF90BF90AF909F908F90C0
S11304807F906F905F904F90089563E08AE290E0D0
S11304900E94E00062E08AE290E00E94E00062E0F4
S11304A084E290E00E94D40063E084E290E00E9441
S11304B0D40062E085E290E00E94F10063E085E20E
S11304C090E00E94F10064E084E290E00E94D40095
S11304D0E9E6F0E080818C608083E99A8081836022
S11304E08083E89A789487E690E00E94600310E0A5
S11304F0D1E0C12F90910001209101018D2F913005
S113050009F08C2F882329F18D2F213009F08C2FAD
S11305108823F9F080913401843029F4C0933401A4
S11305209F5F9093000187EC90E00197F1F700C082
S1130530000062E085E290E00E94FE0095E39A9557
S1130540F1F7000062E085E290E00E94F100C093C0
S1130550010190910001209101018D2F923009F049
S11305608C2F882319F18D2F213009F08C2F8823AB
S1130570E9F080913401843019F49F5F9093000175
S113058087EC90E00197F1F700C0000063E085E29A
S113059090E00E94FE0095E39A95F1F7000063E075
S11305A085E290E00E94F100C09301018091000176
S11305B0833009F09FCF00913401209130013091B4
S11305C03101409132015091330160912C017091BD
S11305D02D0180912E0190912F010F2EF3E0EF2E2B
S11305E0F02D0E94A201109230011092310110925C
S11305F032011092330110922C0110922D011092AD
S11306002E0110922F0110933401D093000172CF68
S11306101F920F920FB60F9211242F938F939F93D3
S1130620EF93FF938091C0002091C6008C71E091FC
S11306303701EF5FEF7190913601E91739F0E093DC
S11306403701F0E0E65CFE4F208301C082E0909128
S11306503501892B80933501FF91EF919F918F9103
S11306602F910F900FBE0F901F9018951F920F920D
S11306700FB60F9211248F939F93EF93FF93909152
S1130680390180913801981769F0E0913801EF5FE2
S1130690EF71E0933801F0E0E65AFE4F80818093D9
S11306A0C60005C0E1ECF0E080818F7D8083FF917E
S11306B0EF919F918F910F900FBE0F901F901895FF
S11306C010923901109238011092370110923601BC
S11306D099231CF422E02093C00090789093C500E5
S11306E08093C40088E98093C10086E08093C200AF
S11306F00895209139012F5F2F71909138012917A6
S1130700E1F3E22FF0E0E65AFE4F808320933901B3
S1130710E1ECF0E08081806280830895CF93DF93E1
S1130720EC018881882331F021960E947903899114
S11307308111FBCFDF91CF9108955058BB27AA2791
S11307400E94B5030C94F9040E94EB0438F00E9453
S1130750F20420F039F49F3F19F426F40C94E804D1
S11307600EF4E095E7FB0C94E204E92F0E940A05DD
S113077058F3BA17620773078407950720F079F4D2
S1130780A6F50C942C050EF4E0950B2EBA2FA02D93
S11307900B01B90190010C01CA01A0011124FF272A
S11307A0591B99F0593F50F4503E68F11A16F04025
S11307B0A22F232F342F4427585FF3CF4695379524
S11307C02795A795F0405395C9F77EF41F16BA0BE9
S11307D0620B730B840BBAF09150A1F0FF0FBB1F97
S11307E0661F771F881FC2F70EC0BA0F621F731FE0
S11307F0841F48F4879577956795B795F7959E3F3D
S113080008F0B0CF9395880F08F09927EE0F9795CD
S1130810879508950E94BE0408F481E008950E941B
S113082023040C94F9040E94F20458F00E94EB048F
S113083040F029F45F3F29F00C94E20451110C9428
S11308402D050C94E8040E940A0568F39923B1F37A
S1130850552391F3951B550BBB27AA2762177307E2
S1130860840738F09F5F5F4F220F331F441FAA1F76
S1130870A9F335D00E2E3AF0E0E832D09150504032
S1130880E695001CCAF72BD0FE2F29D0660F771FE0
S1130890881FBB1F261737074807AB07B0E809F0C6
S11308A0BB0B802DBF01FF2793585F4F3AF09E3F4B
S11308B0510578F00C94E2040C942D055F3FE4F3A9
S11308C0983ED4F3869577956795B795F7959F5F8E
S11308D0C9F7880F911D9695879597F90895E1E0DA
S11308E0660F771F881FBB1F621773078407BA0739
S11308F020F0621B730B840BBA0BEE1F88F7E09594
S11309000895E89409C097FB3EF4909580957095FE
S113091061957F4F8F4F9F4F9923A9F0F92F96E947
S1130920BB279395F695879577956795B795F111BC
S1130930F8CFFAF4BB0F11F460FF1BC06F5F7F4F59
S11309408F4F9F4F16C0882311F096E911C077236B
S113095021F09EE8872F762F05C0662371F096E874
S1130960862F70E060E02AF09A95660F771F881F43
S1130970DAF7880F9695879597F90895990F0008E7
S1130980550FAA0BE0E8FEEF16161706E807F9075D
S1130990C0F012161306E407F50798F0621B730BF8
S11309A0840B950B39F40A2661F0232B242B252B79
S11309B021F408950A2609F4A140A6958FEF811D1C
S11309C0811D089597F99F6780E870E060E00895BD
S11309D09FEF80EC089500240A9416161706180653
S11309E00906089500240A9412161306140605062F
S11309F00895092E0394000C11F4882352F0BB0FC0
S1130A0040F4BF2B11F460FF04C06F5F7F4F8F4F22
S1130A109F4F089557FD9058440F551F59F05F3F5D
S1130A2071F04795880F97FB991F61F09F3F79F00C
S1130A3087950895121613061406551FF2CF46958E
S1130A40F1DF08C0161617061806991FF1CF869510
S1130A507105610508940895E894BB2766277727F4
S1130A60CB0197F908950E9446050C94F9040E945D
S1130A70EB0438F00E94F20420F0952311F00C945A
S1130A80E2040C94E80411240C942D050E940A0538
S1130A9070F3959FC1F3950F50E0551F629FF001CD
S1130AA0729FBB27F00DB11D639FAA27F00DB11DE6
S1130AB0AA1F649F6627B00DA11D661F829F22276F
S1130AC0B00DA11D621F739FB00DA11D621F839FF6
S1130AD0A00D611D221F749F3327A00D611D231FCC
S1130AE0849F600D211D822F762F6A2F11249F571A
S1130AF050409AF0F1F088234AF0EE0FFF1FBB1F1D
S1130B00661F771F881F91505040A9F79E3F5105DB
S1130B1080F00C94E2040C942D055F3FE4F3983EBE
S1130B20D4F3869577956795B795F795E7959F5F85
S1130B30C1F7FE2B880F911D9695879597F9089517
S1130B40A0E1B0E0E6EAF5E00C941D097C011B018C
S1130B506A01FC0117821682838181FF44C39E01CE
S1130B602F5F3F4F3901F7019381F10193FD859187
S1130B7093FF81911F01882309F431C3853239F42D
S1130B8093FD859193FF81911F01853239F4B7015B
S1130B9090E00E94420A56016501E5CF10E0512C15
S1130BA0912CFFE1F915D8F08B3279F038F48032CA
S1130BB079F08332A1F4F92DF0612EC08D3261F009
S1130BC0803369F4292D21602DC0392D3260932E94
S1130BD0892D8460982E2AC0E92DE86015C097FC01
S1130BE02DC020ED280F2A3088F496FE06C03AE086
S1130BF0139F200D1124122F19C08AE0589E200D36
S1130C001124522EE92DE0629E2E10C08E3231F452
S1130C1096FCE5C2F92DF0649F2E08C08C3621F4B1
S1130C20292D2068922E02C0883641F4F10193FDEB
S1130C30859193FF81911F018111B3CF9BEB980F95
S1130C40933020F4992D9061805E07C09BE9980F42
S1130C50933008F066C1992D9F7E96FF16E09F732E
S1130C60992E853619F49064992E08C0863621F49D
S1130C70392F3068932E02C01111115097FE07C00E
S1130C801C3350F444244394410E27E00BC0183025
S1130C9038F027E017E005C027E09CE3492E02C0A6
S1130CA0212F412C560184E0A80EB11CF60160816D
S1130CB0718182819381042DA3010E9454096C01E6
S1130CC0F981FC87F0FF02C0F3FF06C091FC06C067
S1130CD092FE06C000E205C00DE203C00BE201C0B3
S1130CE000E08C858C7019F001115AC29BC297FEEA
S1130CF010C04C0CFC85F4FF04C08A81813309F4D4
S1130D004A94141474F528E0241578F588E0482EE4
S1130D102CC096FC2AC0812F90E08C159D059CF078
S1130D203CEFC3163FEFD30674F0892D8068982EEC
S1130D300AC0E2E0F0E0EC0FFD1FE10FF11D80813D
S1130D40803319F411501111F4CF97FE0EC04424CE
S1130D504394410E812F90E0C816D9062CF41C1937
S1130D6004C04424439401C010E097FE06C01C1440
S1130D701D0434F4C601019605C085E090E002C06C
S1130D8081E090E001110196112331F0212F30E030
S1130D902F5F3F4F820F931F252D30E0821793075B
S1130DA014F4581A01C0512C892D897049F4552026
S1130DB039F0B70180E290E00E94420A5A94F7CFDA
S1130DC0002329F0B701802F90E00E94420A93FC8F
S1130DD009C0552039F0B70180E390E00E94420A2F
S1130DE05A94F7CF97FE4CC04601D7FE02C0812C1F
S1130DF0912CC60188199909F301E80FF91FFE87A0
S1130E00ED87960124193109388B2F87012F10E0C3
S1130E101195019511093FEF8316930629F4B70143
S1130E208EE290E00E94420AC814D9044CF08F85E7
S1130E3098898815990524F4ED85FE85818101C082
S1130E4080E3F1E08F1A91082D853E852F5F3F4F97
S1130E503E872D87801691062CF0B70190E00E9402
S1130E60420AD9CFC814D90441F49A81963320F4A4
S1130E70953319F43C8534FF81E3B70190E04EC00B
S1130E808A81813319F09C859F7E9C87B70190E00D
S1130E900E94420A111105C094FC18C085E690E036
S1130EA017C0B7018EE290E00E94420A1E5F82E002
S1130EB001E0080FF301E80FF11D8081B70190E014
S1130EC00E94420A802F0113F3CFE6CF85E490E01D
S1130ED0B7010E94420AD7FC06C0C114D10441F4F0
S1130EE0EC85E4FF05C0D194C194D1088DE201C022
S1130EF08BE2B70190E00E94420A80E32AE0C21626
S1130F00D1042CF08F5FFAE0CF1AD108F7CFB701E4
S1130F1090E00E94420AB701C601C0960E94420AAC
S1130F2054C1833631F0833779F0833509F056C0E4
S1130F3020C0560132E0A30EB11CF60180818983E2
S1130F4001E010E0630112C05601F2E0AF0EB11CE3
S1130F50F601C080D18096FE03C0612F70E002C00C
S1130F606FEF7FEFC6010E94370A8C01F92DFF77DE
S1130F7014C0560122E0A20EB11CF601C080D1803B
S1130F8096FE03C0612F70E002C06FEF7FEFC601D1
S1130F900E942C0A8C01F92DF0689F2EF3FD1AC0D3
S1130FA0852D90E008171907A8F4B70180E290E0B6
S1130FB00E94420A5A94F4CFF60197FC859197FE59
S1130FC081916F01B70190E00E94420A51105A9436
S1130FD0015011090115110579F7F7C0843611F094
S1130FE0893661F5560197FE09C024E0A20EB11CB2
S1130FF0F60160817181828193810AC0F2E0AF0EB3
S1131000B11CF60160817181072E000C880B990BCD
S1131010F92DFF769F2E97FF09C0909580957095C6
S113102061957F4F8F4F9F4FF0689F2E2AE030E0ED
S1131030A3010E94A00AC82EC6183FC0092D8537F7
S113104021F40F7E2AE030E01DC0097F8F3691F035
S113105018F4883559F0C3C0803719F0883711F077
S1131060BEC0006104FF09C0046007C094FE08C04C
S1131070066006C028E030E005C020E130E002C090
S113108020E132E0560107FF09C084E0A80EB11C3C
S1131090F601608171818281938108C0F2E0AF0E14
S11310A0B11CF6016081718180E090E0A3010E948F
S11310B0A00AC82EC6180F77902E96FE0BC0092DD5
S11310C00E7FC11650F494FE0AC092FC08C0092D8C
S11310D00E7E05C0DC2C092D03C0DC2C01C0D12EF2
S11310E004FF0DC0FE01EC0DF11D8081803311F46D
S11310F0097E09C002FF06C0D394D39404C0802F94
S1131100867809F0D39403FD11C000FF06C01C2D9E
S1131110D51480F4150D1D190DC0D51458F4B7015C
S113112080E290E00E94420AD394F7CFD51410F4E1
S11311305D1801C0512C04FF10C0B70180E390E09A
S11311400E94420A02FF17C001FD03C088E790E035
S113115002C088E590E0B7010CC0802F867859F072
S113116001FF02C08BE201C080E207FD8DE2B701FE
S113117090E00E94420AC11638F4B70180E390E07F
S11311800E94420A1150F7CFCA94F301EC0DF11DED
S11311908081B70190E00E94420AC110F5CF15C0CA
S11311A0F4E0F51560F584E0581A93FE1FC00111B0
S11311B027C02C8523FF2AC008E610E0392D3071A2
S11311C0932EF8018491811124C0552009F4E4CCB4
S11311D0B70180E290E00E94420A5A94F6CFF701E8
S11311E08681978126C08FEF9FEF23C0B70180E2ED
S11311F090E00E94420A5A945110F8CFD8CF512C53
S1131200B701802F90E00E94420AD3CF0CE610E091
S1131210D5CF91108052B70190E00E94420A0F5F2F
S11312201F4FCFCF23E0251510F483E0BDCF512C01
S1131230C0CF6096E2E10C9439092F923F924F920D
S11312405F926F927F928F929F92AF92BF92CF9252
S1131250DF92EF92FF920F931F93CF93DF93CDB75B
S1131260DEB7CA1BDB0B0FB6F894DEBF0FBECDBFD3
S113127009942A88398848885F846E847D848C84A4
S11312809B84AA84B984C884DF80EE80FD800C81AD
S11312901B81AA81B981CE0FD11D0FB6F894DEBF90
S11312A00FBECDBFED010895283008F027E03327A5
S11312B0DA01990F311D87FD916000966105710572
S11312C039F432602E5F3D9330E32A95E1F70895B7
S11312D09F3F30F080387105610509F03C5F3C5F49
S11312E03D93913008F08068911DDF93CF931F9355
S11312F00F93FF92EF92192F987F9695E92F969569
S11313009695E90FFF27E653FF4F99273327EE24DD
S1131310FF24A701E70105900894079428F4360FE9
S1131320E71EF81E491F511D660F771F881F991F5E
S11313300694A1F70590079428F4E70EF81E491FB8
S1131340561FC11D770F881F991F661F0694A1F7AA
S11313500590079428F4F80E491F561FC71FD11D86
S1131360880F991F661F771F0694A1F705900794AD
S113137020F4490F561FC71FD81F990F661F771FE8
S1131380881F0694A9F784911095177041F0D6959B
S1131390C79557954795F794E7941A95C1F7E0E7F1
S11313A0F0E06894159015913591659195910590AB
S11313B07FE27395E118F10A430B560BC90BD00970
S11313C0C0F7E10CF11E431F561FC91FD01D7EF448
S11313D0703311F48A95E6CFE894015030F0080F89
S11313E00AF40027021708F4202F2395022F7A33DA
S11313F028F079E37D932A95E9F710C07D932A9527
S113140089F6069497956795379517951794E1187B
S1131410F10A430B560BC90BD00998F023957E9122
S113142073957A3308F070E37C932013B8F77E91B8
S113143070617D9330F0839571E37D9370E32A9519
S1131440E1F71124EF90FF900F911F91CF91DF915D
S1131450992787FD90950895FC010590615070408F
S11314600110D8F7809590958E0F9F1F0895FC0169
S11314706150704001900110D8F7809590958E0FBF
S11314809F1F08950F931F93CF93DF93FB01238135
S113149021FD03C08FEF9FEF2CC022FF16C04681B1
S11314A05781248135814217530744F4A081B181C7
S11314B09D012F5F3F4F318320838C932681378199
S11314C02F5F3F4F3783268314C08B01EC01FB0150
S11314D00084F185E02D0995892BE1F6D801169653
S11314E08D919C911797019617969C938E931697BE
S11314F0CE01DF91CF911F910F910895AEE0B0E03E
S1131500E4E8FAE00C942B090D891E8986E08C83AB
S11315101A8309838FEF9FE79E838D83AE01475E15
S11315205F4F6F89788DCE0101960E94A005EF81EF
S1131530F885E00FF11F10822E96E4E00C94470921
S1131540FA01AA27283051F1203181F1E8946F93F0
S11315506E7F6E5F7F4F8F4F9F4FAF4FB1E03ED096
S1131560B4E03CD0670F781F891F9A1FA11D680F34
S1131570791F8A1F911DA11D6A0F711D811D911D67
S1131580A11D20D009F468943F912AE0269F1124DC
S11315903019305D3193DEF6CF010895462F477040
S11315A0405D4193B3E00FD0C9F7F6CF462F4F709B
S11315B0405D4A3318F0495D31FD4052419302D0F9
S11315C0A9F7EACFB4E0A69597958795779567959F
S11315D0BA95C9F700976105710508959B01AC019F
S11315E00A2E06945795479537952795BA95C9F7C6
S11315F0620F731F841F951FA01D0895F894FFCFD9
S1131600010146726F6E743A2025302E3166202017
S1131610202020207C7C2020202020205265617204
S10F16203A2025302E3166200D0A00000F
S9030000FC
