S02000005061726B696E67417373697374616E745F48432D535230342E737265635E
S11300000C94B5000C94CA010C94AD010C94D2006C
S11300100C94D2000C94D2000C94D2000C94D20014
S11300200C94D2000C94D2000C94D2000C94D20004
S11300300C94D2000C9440020C94D2000C94D20084
S11300400C94E7010C94D2000C94BA080C94E808C0
S11300500C94D2000C94D2000C94D2000C94D200D4
S11300600C94D2000C94D2006E616E00696E66002E
S113007000407A10F35A00A0724E18090010A5D45B
S1130080E80000E87648170000E40B54020000CAB8
S11300909A3B000000E1F5050000809698000000FE
S11300A040420F000000A08601000000102700005D
S11300B00000E803000000006400000000000A00E3
S11300C0000000000100000000002C76D888DC67E6
S11300D04F0823DFC1DFAE59E1B1B796E5E3E4533E
S11300E0C63AE651997696E8E6C28426EB898C9B5B
S11300F062ED407C6FFCEFBC9C9F40F2BAA56FA5FB
S1130100F490055A2AF75C936B6CF9676DC11BFC7C
S1130110E0E40D47FEF520E6B500D0ED902E030097
S1130120943577050080841E080000204E0A0000E4
S113013000C80C333333330F986E12831141EF8DA3
S11301402114893BE65516CFFEE6DB18D1844B38E3
S11301501BF77C1D901DA4BBE424203284725E2214
S11301608100C9F124ECA1E53D2711241FBECFEF86
S1130170D8E0DEBFCDBF11E0A0E0B1E0EEE6F1E2F1
S113018002C005900D92A236B107D9F721E0A2E68C
S1130190B1E001C01D92A23BB207E1F70E94AB0699
S11301A00C94B5100C940000FC01408121E030E077
S11301B002C0220F331F6A95E2F7242B208308958F
S11301C0FC01808121E030E002C0220F331F6A95D8
S11301D0E2F72095822380838081818128232183F3
S11301E00895FC01908121E030E002C0220F331F0A
S11301F06A95E2F72095292320830895FC01408124
S113020021E030E002C0220F331F6A95E2F7242B6D
S113021020830895FC01408121E030E002C0220FD8
S1130220331F6A95E2F7242720830895299A000052
S113023029980895CF93C82F662311F0289A01C0F6
S11302402898549A559A569A579A5F985E985D984A
S11302505C98CC230CF45F9AC6FD5E9AC5FD5D9A4A
S1130260C4FD5C9A0E9416015F985E985D985C9844
S1130270C3FD5F9AC2FD5E9AC1FD5D9AC0FD5C9AA2
S11302800E9416015C9A5D9A5E9A5F9A8AEF8A953B
S1130290F1F7CF91089560E00E941A010895611169
S11302A004C080580E944B01089580540E944B0161
S11302B0089581E00E944B01089561E00E941A01B3
S11302C00895CF93DF93EC012196FC01808188236C
S11302D029F00E945D0189918111FBCFDF91CF91BB
S11302E00895CF93C82F209A559A219A549A559AD3
S11302F0569A579A8FE99FE00197F1F700C00000E2
S11303005D9A5C9A0E94160181EE94E00197F1F7E0
S113031000C000000E94160195E19A95F1F70000D3
S11303200E94160185E18A95F1F700005C980E940D
S1130330160195E19A95F1F7000088E20E944B01BD
S113034088E00E944B010E94590186E00E944B0103
S11303508C2F0E944B01CF9108951F920F920FB6DC
S11303600F9211248F9380910001882319F0109229
S113037000010AC080916A018F5F80936A0181E065
S113038080930201809300018F910F900FBE0F9014
S11303901F9018951F920F920FB60F9211248F93EE
S11303A080910001882319F0109200010AC0809105
S11303B06A018F5F80936A0181E0809302018093D8
S11303C000018F910F900FBE0F901F9018951F92F0
S11303D00F920FB60F9211242F933F934F935F9375
S11303E06F937F938F939F93AF93BF93EF93FF93F9
S11303F080910001811133C0809101018130B9F4F1
S11304006091660170916701809168019091690122
S113041020E030E040E851E40E9450096093660116
S113042070936701809368019093690118C08230CA
S1130430B1F46091620170916301809164019091C3
S1130440650120E030E040E851E40E9450096093E7
S11304506201709363018093640190936501FF913D
S1130460EF91BF91AF919F918F917F916F915F9128
S11304704F913F912F910F900FBE0F901F901895A1
S11304801F920F920FB60F9211242F933F934F9305
S11304905F936F937F938F939F93AF93BF93EF93E8
S11304A0FF9364E085E290E00E940A0180916B0171
S11304B090916C019093850080938400FF91EF915B
S11304C0BF91AF919F918F917F916F915F914F9168
S11304D03F912F910F900FBE0F901F9018952F9260
S11304E03F924F925F926F927F928F929F92AF92C0
S11304F0BF92CF92DF92EF92FF920F931F93CF930D
S1130500DF93CDB7DEB7C456D1090FB6F894DEBF7A
S11305100FBECDBF49015A0120E030E040E05FE367
S11305200E94EA0A28E23EE74CE05DE30E94EA0A00
S1130530D62EC72E782E692E20E030E040E05FE30F
S1130540C501B4010E94EA0A28E23EE74CE05DE3FB
S11305500E94EA0AE62EF72E082F192F762F272F4E
S11305603F2D402F512F6D2D7C2D872D962D0E94D0
S1130570BC0988232CF05E2C4F2C302E212E04C075
S11305805D2C4C2C372C262CBB24B39420E030E07B
S113059040E251E46E2D7F2D802F912F0E94BC09E3
S11305A018160CF4B12CB11011C0BB24B39420E084
S11305B030E040E251E46D2D7C2D872D962D0E9474
S11305C0BC0918160CF4B12CBB2059F0EFE6F0E08E
S11305D080818E7F808364E085E290E00E94FE004B
S11305E032C0BB24B39420E030E048E452E46E2DE2
S11305F07F2D802F912F0E94E50A18160CF0B12C44
S1130600BB20E1F0BB24B39420E030E048E452E4A2
S11306106D2D7C2D872D962D0E94E50A18160CF061
S1130620B12CBB2059F0EFE6F0E080818E7F80830F
S113063064E085E290E00E94F10005C0EFE6F0E09E
S11306408081816080836F927F92CF92DF921F932B
S11306500F93FF92EF928CE091E09F938F93CE01E2
S113066001965C019F938F930E943510C5010E94EF
S113067040091F930F93FF92EF920F2EFFE28F2EEC
S1130680F1E09F2EF02D9F928F925E0193E3A90ECD
S1130690B11CBF92AF920E94351060E087E00E94C7
S11306A04F0185E391E00E94610160E087E00E94D0
S11306B04F01C5010E9461016F927F92CF92DF9238
S11306C09F928F92BF92AF920E94351061E087E0B3
S11306D00E944F0185E391E00E94610161E087E09F
S11306E00E944F01C5010E9461010FB6F894DEBF5C
S11306F00FBECDBF20E030E040E251E46E2D7F2DEF
S1130700802F912F0E94BC0918161CF088E00E94CB
S11307102808BB24B39420E030E040E251E46E2D7D
S11307207F2D802F912F0E94E50A18160CF0B12C12
S1130730BB20A9F0BB24B39420E030E040E751E4AF
S11307406E2D7F2D802F912F0E94BC0918160CF45A
S1130750B12CBB2021F087E00E942808E7C0BB240D
S1130760B39420E030E040E751E46E2D7F2D802FDC
S1130770912F0E94E50A18160CF0B12CBB20A9F0A9
S1130780BB24B39420E030E040EA51E46E2D7F2D89
S1130790802F912F0E94BC0918160CF4B12CBB2099
S11307A021F086E00E942808C1C0BB24B39420E055
S11307B030E040EA51E46E2D7F2D802F912F0E946E
S11307C0E50A18160CF0B12CBB20A9F0BB24B39495
S11307D020E030E048EC51E46E2D7F2D802F912FE6
S11307E00E94BC0918160CF4B12CBB2021F085E042
S11307F00E9428089BC0BB24B39420E030E048EC5E
S113080051E46E2D7F2D802F912F0E94E50A18163A
S11308100CF0B12CBB20A9F0BB24B39420E030E051
S113082040EF51E46E2D7F2D802F912F0E94BC0943
S113083018160CF4B12CBB2021F084E00E94280887
S113084075C0BB24B39420E030E040EF51E46E2D3A
S11308507F2D802F912F0E94E50A18160CF0B12CE1
S1130860BB20A9F0BB24B39420E030E04CE052E478
S11308706E2D7F2D802F912F0E94BC0918160CF429
S1130880B12CBB2021F083E00E9428084FC0BB2478
S1130890B39420E030E04CE052E46E2D7F2D802FA5
S11308A0912F0E94E50A18160CF0B12CBB20A9F078
S11308B0BB24B39420E030E040E252E46E2D7F2D5F
S11308C0802F912F0E94BC0918160CF4B12CBB2068
S11308D021F082E00E94280829C0BB24B39420E0C0
S11308E030E040E252E46E2D7F2D802F912F0E9444
S11308F0E50A18160CF0B12CBB20A9F0BB24B39464
S113090020E030E048E452E46E2D7F2D802F912FBB
S11309100E94BC0918160CF4B12CBB2021F081E014
S11309200E94280803C080E00E94280820E030E0EC
S113093040E251E46D2D7C2D872D962D0E94BC093B
S113094018161CF088E00E94710811E020E030E0E5
S113095040E251E46D2D7C2D872D962D0E94E50AF1
S113096018160CF010E01123A1F011E020E030E0A3
S113097040E751E46D2D7C2D872D962D0E94BC09F6
S113098018160CF410E0112321F087E00E9471087E
S1130990DBC011E020E030E040E751E46D2D7C2D18
S11309A0872D962D0E94E50A18160CF010E01123ED
S11309B0A1F011E020E030E040EA51E46D2D7C2DFF
S11309C0872D962D0E94BC0918160CF410E01123F3
S11309D021F086E00E947108B7C011E020E030E009
S11309E040EA51E46D2D7C2D872D962D0E94E50A59
S11309F018160CF010E01123A1F011E020E030E013
S1130A0048EC51E46D2D7C2D872D962D0E94BC0958
S1130A1018160CF410E0112321F085E00E947108EF
S1130A2093C011E020E030E048EC51E46D2D7C2DC2
S1130A30872D962D0E94E50A18160CF010E011235C
S1130A40A1F011E020E030E040EF51E46D2D7C2D69
S1130A50872D962D0E94BC0918160CF410E0112362
S1130A6021F084E00E9471086FC011E020E030E0C2
S1130A7040EF51E46D2D7C2D872D962D0E94E50AC3
S1130A8018160CF010E01123A1F011E020E030E082
S1130A904CE052E46D2D7C2D872D962D0E94BC09CF
S1130AA018160CF410E0112321F083E00E94710861
S1130AB04BC011E020E030E04CE052E46D2D7C2D81
S1130AC0872D962D0E94E50A18160CF010E01123CC
S1130AD0A1F011E020E030E040E252E46D2D7C2DE5
S1130AE0872D962D0E94BC0918160CF410E01123D2
S1130AF021F082E00E94710827C011E020E030E07C
S1130B0040E252E46D2D7C2D872D962D0E94E50A3E
S1130B1018160CF010E01123A1F011E020E030E0F1
S1130B2048E452E46D2D7C2D872D962D0E94BC093E
S1130B3018160CF410E0112321F081E00E947108D2
S1130B4003C080E00E94710811E020E030E040E240
S1130B5051E4652D742D832D922D0E94E50A1816FB
S1130B600CF010E01123B9F011E020E030E040E790
S1130B7051E4652D742D832D922D0E94BC09181605
S1130B800CF410E0112339F080E392EF90936C01A0
S1130B9080936B01C2C011E020E030E040E751E4F3
S1130BA0652D742D832D922D0E94E50A18160CF0E4
S1130BB010E01123B9F011E020E030E040EA51E404
S1130BC0652D742D832D922D0E94BC0918160CF4EA
S1130BD010E0112339F080E992EE90936C01809338
S1130BE06B019BC011E020E030E040EA51E4652D48
S1130BF0742D832D922D0E94E50A18160CF010E036
S1130C001123B9F011E020E030E048EC51E4652D07
S1130C10742D832D922D0E94BC0918160CF410E03B
S1130C20112339F080E29BEC90936C0180936B016B
S1130C3074C011E020E030E048EC51E4652D742DDF
S1130C40832D922D0E94E50A18160CF010E0112352
S1130C50B9F011E020E030E040EF51E4652D742D4F
S1130C60832D922D0E94BC0918160CF410E0112358
S1130C7039F080EB93EB90936C0180936B014DC042
S1130C8011E020E030E04CE052E4652D742D832D1A
S1130C90922D0E94E50A18160CF010E01123B9F009
S1130CA011E020E030E040E252E4652D742D832D04
S1130CB0922D0E94BC0918160CF410E0112339F08F
S1130CC080E49CE990936C0180936B0126C011E051
S1130CD020E030E040E252E4652D742D832D922D06
S1130CE00E94E50A18160CF010E01123B1F011E08F
S1130CF020E030E048E452E4652D742D832D922DDC
S1130D000E94BC0918160CF410E0112331F080ED98
S1130D1094E890936C0180936B0180916B019091A6
S1130D206C01CC59DF4F0FB6F894DEBF0FBECDBFB8
S1130D30DF91CF911F910F91FF90EF90DF90CF90B3
S1130D40BF90AF909F908F907F906F905F904F90E7
S1130D503F902F9008958CE00E94710160E085E03F
S1130D600E944F018DE391E00E94610161E082E005
S1130D700E944F0184E491E00E9461012FEF83ED12
S1130D8090E3215080409040E1F700C000000E94B1
S1130D90590181E591E00E94610161E080E00E94D7
S1130DA04F0188E591E00E94610160E08EE00E94BD
S1130DB04F018EE591E00E94610161E08EE00E94A6
S1130DC04F018EE591E00E9461010E940E0887E6C2
S1130DD090E00E94120963E08AE290E00E94E00041
S1130DE062E08AE290E00E94E00062E084E290E047
S1130DF00E94D40063E084E290E00E94D40062E0A8
S1130E0085E290E00E94F10063E085E290E00E94B8
S1130E10F10064E084E290E00E94D40064E085E2A2
S1130E2090E00E94F100E1E8F0E080818C7F808313
S1130E30808184608083EFE6F0E08081816080833C
S1130E4085B5897F85BD85B5816085BDEEE6F0E019
S1130E50808181608083E99AE9E6F0E08081877F80
S1130E608083808184608083E89A80818D7F808301
S1130E708081816080837894C1E0D0E01091010189
S1130E80909102018C2F113009F08D2F882309F4E1
S1130E9046C08C2F913009F08D2F882309F43FC070
S1130EA080916A01853019F5C0906601D090670180
S1130EB0E0906801F090690160916A0170E080E05F
S1130EC090E00E94350A9B01AC01C701B6010E9463
S1130ED0C1096093660170936701809368019093E0
S1130EE06901D0936A011F5F1093010118C0D09368
S1130EF00201C093000187EC90E00197F1F700C074
S1130F00000062E085E290E00E94FE0095E39A957D
S1130F10F1F7000062E085E290E00E94F100109198
S1130F200101909102018C2F123009F08D2F88233A
S1130F3009F446C08C2F913009F08D2F882309F4D1
S1130F403FC080916A01853019F5C0906201D0904C
S1130F506301E0906401F090650160916A0170E0C2
S1130F6080E090E00E94350A9B01AC01C701B60104
S1130F700E94C109609362017093630180936401CC
S1130F8090936501D0936A011F5F1093010118C00B
S1130F90D0930201C093000187EC90E00197F1F730
S1130FA000C0000063E085E290E00E94FE0095E34B
S1130FB09A95F1F7000063E085E290E00E94F10069
S1130FC080910101833009F059CF2091660130915D
S1130FD067014091680150916901609162017091CB
S1130FE0630180916401909165010E946F02909366
S1130FF06C0180936B01109266011092670110924C
S113100068011092690110926201109263011092BA
S1131010640110926501C093010130CF63E087E25F
S113102090E00E94D40060E087E290E00E94D40047
S113103062E087E290E00E94D40061E087E290E001
S11310400E94D40064E087E290E00E94D4000895F6
S1131050CF93DF93E82FF0E0ED5FFE4FD08160E0A7
S113106088E290E00E94F10062E088E290E00E9451
S1131070F10061E088E290E00E94F10085E08A9549
S1131080F1F70000C8E0D0FD06C060E088E290E01F
S11310900E94F10005C060E088E290E00E94FE003A
S11310A085E08A95F1F7000062E088E290E00E9412
S11310B0FE0085E08A95F1F7000062E088E290E0A6
S11310C00E94F100D695C150F1F661E088E290E00B
S11310D00E94FE0085E08A95F1F70000DF91CF9130
S11310E00895CF93DF93E82FF0E0ED5FFE4FD081BA
S11310F063E088E290E00E94F10062E088E290E020
S11311000E94F10064E088E290E00E94F10085E032
S11311108A95F1F70000C8E0D0FD06C063E088E2DC
S113112090E00E94F10005C063E088E290E00E9434
S1131130FE0085E08A95F1F7000062E088E290E025
S11311400E94FE0085E08A95F1F7000062E088E2E3
S113115090E00E94F100D695C150F1F664E088E277
S113116090E00E94FE0085E08A95F1F70000DF918F
S1131170CF9108951F920F920FB60F9211242F93BF
S11311808F939F93EF93FF938091C0002091C600AB
S11311908C71E0916F01EF5FEF7190916E01E9172F
S11311A039F0E0936F01F0E0EE58FE4F208301C068
S11311B082E090916D01892B80936D01FF91EF91F5
S11311C09F918F912F910F900FBE0F901F901895A4
S11311D01F920F920FB60F9211248F939F93EF9348
S11311E0FF939091710180917001981769F0E091DB
S11311F07001EF5FEF71E0937001F0E0EE56FE4F87
S113120080818093C60005C0E1ECF0E080818F7D91
S11312108083FF91EF919F918F910F900FBE0F905C
S11312201F901895109271011092700110926F0125
S113123010926E0199231CF422E02093C000907850
S11312409093C5008093C40088E98093C10086E030
S11312508093C2000895209171012F5F2F719091A6
S113126070012917E1F3E22FF0E0EE56FE4F808380
S113127020937101E1ECF0E0808180628083089525
S1131280CF93DF93EC018881882331F021960E946B
S11312902B0989918111FBCFDF91CF91089550588B
S11312A0BB27AA270E9467090C94AB0A0E949D0AD7
S11312B038F00E94A40A20F039F49F3F19F426F470
S11312C00C949A0A0EF4E095E7FB0C94940AE92F27
S11312D00E94BC0A58F3BA1762077307840795077C
S11312E020F079F4A6F50C94DE0A0EF4E0950B2EAA
S11312F0BA2FA02D0B01B90190010C01CA01A00164
S11313001124FF27591B99F0593F50F4503E68F1BE
S11313101A16F040A22F232F342F4427585FF3CFFF
S1131320469537952795A795F0405395C9F77EF4D0
S11313301F16BA0B620B730B840BBAF09150A1F019
S1131340FF0FBB1F661F771F881FC2F70EC0BA0F9F
S1131350621F731F841F48F4879577956795B79527
S1131360F7959E3F08F0B0CF9395880F08F0992722
S1131370EE0F9795879508950E94700A08F481E00E
S113138008950E94D5090C94AB0A0E94A40A58F04F
S11313900E949D0A40F029F45F3F29F00C94940ABE
S11313A051110C94DF0A0C949A0A0E94BC0A68F347
S11313B09923B1F3552391F3951B550BBB27AA270A
S11313C062177307840738F09F5F5F4F220F331F44
S11313D0441FAA1FA9F335D00E2E3AF0E0E832D00C
S11313E091505040E695001CCAF72BD0FE2F29D00F
S11313F0660F771F881FBB1F261737074807AB07E1
S1131400B0E809F0BB0B802DBF01FF2793585F4F55
S11314103AF09E3F510578F00C94940A0C94DF0A3C
S11314205F3FE4F3983ED4F3869577956795B79537
S1131430F7959F5FC9F7880F911D9695879597F942
S11314400895E1E0660F771F881FBB1F62177307BB
S11314508407BA0720F0621B730B840BBA0BEE1FD0
S113146088F7E0950895E89409C097FB3EF49095B9
S11314708095709561957F4F8F4F9F4F9923A9F069
S1131480F92F96E9BB279395F695879577956795F8
S1131490B795F111F8CFFAF4BB0F11F460FF1BC03C
S11314A06F5F7F4F8F4F9F4F16C0882311F096E9CF
S11314B011C0772321F09EE8872F762F05C066237D
S11314C071F096E8862F70E060E02AF09A95660F36
S11314D0771F881FDAF7880F9695879597F90895EF
S11314E0990F0008550FAA0BE0E8FEEF1616170631
S11314F0E807F907C0F012161306E407F50798F099
S1131500621B730B840B950B39F40A2661F0232BB1
S1131510242B252B21F408950A2609F4A140A6952D
S11315208FEF811D811D089597F99F6780E870E012
S113153060E008959FEF80EC089500240A94161645
S1131540170618060906089500240A9412161306AD
S1131550140605060895092E0394000C11F488233B
S113156052F0BB0F40F4BF2B11F460FF04C06F5F57
S11315707F4F8F4F9F4F089557FD9058440F551F2D
S113158059F05F3F71F04795880F97FB991F61F001
S11315909F3F79F087950895121613061406551F78
S11315A0F2CF4695F1DF08C0161617061806991FE4
S11315B0F1CF86957105610508940895E894BB27D9
S11315C066277727CB0197F908950E94700A08F4DB
S11315D08FEF08950E94FD0A0C94AB0A0E949D0AA5
S11315E038F00E94A40A20F0952311F00C94940A78
S11315F00C949A0A11240C94DF0A0E94BC0A70F31A
S1131600959FC1F3950F50E0551F629FF001729FA3
S1131610BB27F00DB11D639FAA27F00DB11DAA1FB2
S1131620649F6627B00DA11D661F829F2227B00DFF
S1131630A11D621F739FB00DA11D621F839FA00D8A
S1131640611D221F749F3327A00D611D231F849FDA
S1131650600D211D822F762F6A2F11249F57504031
S11316609AF0F1F088234AF0EE0FFF1FBB1F661FAC
S1131670771F881F91505040A9F79E3F510580F075
S11316800C94940A0C94DF0A5F3FE4F3983ED4F37D
S1131690869577956795B795F795E7959F5FC1F719
S11316A0FE2B880F911D9695879597F90895A0E1D3
S11316B0B0E0EDE5FBE00C94D40E7C011B016A0163
S11316C0FC0117821682838181FF44C39E012F5F30
S11316D03F4F3901F7019381F10193FD859193FF08
S11316E081911F01882309F431C3853239F493FDB4
S11316F0859193FF81911F01853239F4B70190E000
S11317000E94F90F56016501E5CF10E0512C912C90
S1131710FFE1F915D8F08B3279F038F4803279F0A2
S11317208332A1F4F92DF0612EC08D3261F0803343
S113173069F4292D21602DC0392D3260932E892D15
S11317408460982E2AC0E92DE86015C097FC2DC04E
S113175020ED280F2A3088F496FE06C03AE0139F45
S1131760200D1124122F19C08AE0589E200D112437
S1131770522EE92DE0629E2E10C08E3231F496FC7A
S1131780E5C2F92DF0649F2E08C08C3621F4292D72
S11317902068922E02C0883641F4F10193FD8591B0
S11317A093FF81911F018111B3CF9BEB980F93306D
S11317B020F4992D9061805E07C09BE9980F9330C7
S11317C008F066C1992D9F7E96FF16E09F73992EAF
S11317D0853619F49064992E08C0863621F4392F81
S11317E03068932E02C01111115097FE07C01C33AC
S11317F050F444244394410E27E00BC0183038F0D1
S113180027E017E005C027E09CE3492E02C0212F02
S1131810412C560184E0A80EB11CF601608171814F
S113182082819381042DA3010E940B0F6C01F98125
S1131830FC87F0FF02C0F3FF06C091FC06C092FED5
S113184006C000E205C00DE203C00BE201C000E0E7
S11318508C858C7019F001115AC29BC297FE10C07E
S11318604C0CFC85F4FF04C08A81813309F44A944A
S1131870141474F528E0241578F588E0482E2CC05B
S113188096FC2AC0812F90E08C159D059CF03CEFBE
S1131890C3163FEFD30674F0892D8068982E0AC0D2
S11318A0E2E0F0E0EC0FFD1FE10FF11D80818033D9
S11318B019F411501111F4CF97FE0EC0442443942F
S11318C0410E812F90E0C816D9062CF41C1904C0CF
S11318D04424439401C010E097FE06C01C141D0468
S11318E034F4C601019605C085E090E002C081E0B1
S11318F090E001110196112331F0212F30E02F5F88
S11319003F4F820F931F252D30E08217930714F465
S1131910581A01C0512C892D897049F4552039F089
S1131920B70180E290E00E94F90F5A94F7CF0023A8
S113193029F0B701802F90E00E94F90F93FC09C0B1
S1131940552039F0B70180E390E00E94F90F5A94D2
S1131950F7CF97FE4CC04601D7FE02C0812C912CD4
S1131960C60188199909F301E80FF91FFE87ED876D
S1131970960124193109388B2F87012F10E0119516
S1131980019511093FEF8316930629F4B7018EE2FE
S113199090E00E94F90FC814D9044CF08F859889FF
S11319A08815990524F4ED85FE85818101C080E3C5
S11319B0F1E08F1A91082D853E852F5F3F4F3E87BA
S11319C02D87801691062CF0B70190E00E94F90F44
S11319D0D9CFC814D90441F49A81963320F49533AD
S11319E019F43C8534FF81E3B70190E04EC08A814D
S11319F0813319F09C859F7E9C87B70190E00E94FB
S1131A00F90F111105C094FC18C085E690E017C0C9
S1131A10B7018EE290E00E94F90F1E5F82E001E0C0
S1131A20080FF301E80FF11D8081B70190E00E94D7
S1131A30F90F802F0113F3CFE6CF85E490E0B701CF
S1131A400E94F90FD7FC06C0C114D10441F4EC85FF
S1131A50E4FF05C0D194C194D1088DE201C08BE2AA
S1131A60B70190E00E94F90F80E32AE0C216D10486
S1131A702CF08F5FFAE0CF1AD108F7CFB70190E0CE
S1131A800E94F90FB701C601C0960E94F90F54C114
S1131A90833631F0833779F0833509F056C020C09E
S1131AA0560132E0A30EB11CF6018081898301E066
S1131AB010E0630112C05601F2E0AF0EB11CF60152
S1131AC0C080D18096FE03C0612F70E002C06FEF2A
S1131AD07FEFC6010E94EE0F8C01F92DFF7714C031
S1131AE0560122E0A20EB11CF601C080D18096FE00
S1131AF003C0612F70E002C06FEF7FEFC6010E9448
S1131B00E30F8C01F92DF0689F2EF3FD1AC0852D8B
S1131B1090E008171907A8F4B70180E290E00E944A
S1131B20F90F5A94F4CFF60197FC859197FE8191B1
S1131B306F01B70190E00E94F90F51105A940150BF
S1131B4011090115110579F7F7C0843611F08936AA
S1131B5061F5560197FE09C024E0A20EB11CF601FE
S1131B6060817181828193810AC0F2E0AF0EB11C61
S1131B70F60160817181072E000C880B990BF92DF9
S1131B80FF769F2E97FF09C090958095709561957B
S1131B907F4F8F4F9F4FF0689F2E2AE030E0A301C4
S1131BA00E945710C82EC6183FC0092D853721F44E
S1131BB00F7E2AE030E01DC0097F8F3691F018F4C3
S1131BC0883559F0C3C0803719F0883711F0BEC08A
S1131BD0006104FF09C0046007C094FE08C00660E9
S1131BE006C028E030E005C020E130E002C020E17A
S1131BF032E0560107FF09C084E0A80EB11CF601CB
S1131C00608171818281938108C0F2E0AF0EB11CC2
S1131C10F6016081718180E090E0A3010E94571079
S1131C20C82EC6180F77902E96FE0BC0092D0E7F76
S1131C30C11650F494FE0AC092FC08C0092D0E7E11
S1131C4005C0DC2C092D03C0DC2C01C0D12E04FFFF
S1131C500DC0FE01EC0DF11D8081803311F4097E6D
S1131C6009C002FF06C0D394D39404C0802F8678A1
S1131C7009F0D39403FD11C000FF06C01C2DD51438
S1131C8080F4150D1D190DC0D51458F4B70180E268
S1131C9090E00E94F90FD394F7CFD51410F45D1897
S1131CA001C0512C04FF10C0B70180E390E00E94F2
S1131CB0F90F02FF17C001FD03C088E790E002C0DE
S1131CC088E590E0B7010CC0802F867859F001FFB9
S1131CD002C08BE201C080E207FD8DE2B70190E013
S1131CE00E94F90FC11638F4B70180E390E00E9416
S1131CF0F90F1150F7CFCA94F301EC0DF11D808157
S1131D00B70190E00E94F90FC110F5CF15C0F4E0BF
S1131D10F51560F584E0581A93FE1FC0011127C021
S1131D202C8523FF2AC008E610E0392D3071932E4C
S1131D30F8018491811124C0552009F4E4CCB70141
S1131D4080E290E00E94F90F5A94F6CFF701868161
S1131D50978126C08FEF9FEF23C0B70180E290E008
S1131D600E94F90F5A945110F8CFD8CF512CB701D3
S1131D70802F90E00E94F90FD3CF0CE610E0D5CF6E
S1131D8091108052B70190E00E94F90F0F5F1F4F2E
S1131D90CFCF23E0251510F483E0BDCF512CC0CF65
S1131DA06096E2E10C94F00E2F923F924F925F9274
S1131DB06F927F928F929F92AF92BF92CF92DF9257
S1131DC0EF92FF920F931F93CF93DF93CDB7DEB7BC
S1131DD0CA1BDB0B0FB6F894DEBF0FBECDBF099450
S1131DE02A88398848885F846E847D848C849B84A7
S1131DF0AA84B984C884DF80EE80FD800C811B81B5
S1131E00AA81B981CE0FD11D0FB6F894DEBF0FBEE3
S1131E10CDBFED010895283008F027E03327DA011B
S1131E20990F311D87FD916000966105710539F4A4
S1131E3032602E5F3D9330E32A95E1F708959F3F8A
S1131E4030F080387105610509F03C5F3C5F3D93DB
S1131E50913008F08068911DDF93CF931F930F9307
S1131E60FF92EF92192F987F9695E92F9695969564
S1131E70E90FFF27E653FF4F99273327EE24FF246A
S1131E80A701E70105900894079428F4360FE71E8C
S1131E90F81E491F511D660F771F881F991F06944E
S1131EA0A1F70590079428F4E70EF81E491F561F62
S1131EB0C11D770F881F991F661F0694A1F705900F
S1131EC0079428F4F80E491F561FC71FD11D880F09
S1131ED0991F661F771F0694A1F70590079420F4B5
S1131EE0490F561FC71FD81F990F661F771F881FDA
S1131EF00694A9F784911095177041F0D695C7956B
S1131F0057954795F794E7941A95C1F7E0E7F0E001
S1131F1068941590159135916591959105907FE29E
S1131F207395E118F10A430B560BC90BD009C0F79E
S1131F30E10CF11E431F561FC91FD01D7EF47033E0
S1131F4011F48A95E6CFE894015030F0080F0AF4B2
S1131F500027021708F4202F2395022F7A3328F044
S1131F6079E37D932A95E9F710C07D932A9589F644
S1131F70069497956795379517951794E118F10A84
S1131F80430B560BC90BD00998F023957E9173959A
S1131F907A3308F070E37C932013B8F77E91706174
S1131FA07D9330F0839571E37D9370E32A95E1F797
S1131FB01124EF90FF900F911F91CF91DF919927FA
S1131FC087FD90950895FC010590615070400110C3
S1131FD0D8F7809590958E0F9F1F0895FC0161504E
S1131FE0704001900110D8F7809590958E0F9F1F37
S1131FF008950F931F93CF93DF93FB01238121FD5A
S113200003C08FEF9FEF2CC022FF16C0468157817B
S1132010248135814217530744F4A081B1819D0185
S11320202F5F3F4F318320838C93268137812F5F2D
S11320303F4F3783268314C08B01EC01FB010084DE
S1132040F185E02D0995892BE1F6D80116968D913D
S11320509C911797019617969C938E931697CE0191
S1132060DF91CF911F910F910895AEE0B0E0EBE3C3
S1132070F0E10C94E20E0D891E8986E08C831A83AC
S113208009838FEF9FE79E838D83AE01475E5F4F89
S11320906F89788DCE0101960E94570BEF81F885E8
S11320A0E00FF11F10822E96E4E00C94FE0EFA016C
S11320B0AA27283051F1203181F1E8946F936E7F83
S11320C06E5F7F4F8F4F9F4FAF4FB1E03ED0B4E074
S11320D03CD0670F781F891F9A1FA11D680F791FB5
S11320E08A1F911DA11D6A0F711D811D911DA11DC6
S11320F020D009F468943F912AE0269F11243019D6
S1132100305D3193DEF6CF010895462F4770405D70
S11321104193B3E00FD0C9F7F6CF462F4F70405D1F
S11321204A3318F0495D31FD4052419302D0A9F77A
S1132130EACFB4E0A6959795879577956795BA9574
S1132140C9F700976105710508959B01AC010A2E3A
S113215006945795479537952795BA95C9F7620F11
S1112160731F841F951FA01D0895F894FFCFD0
S113216E010101000103070F1F3F7FFF46726F6ECF
S113217E743A2025302E316C6620207C7C2020522F
S113218E6561723A2025302E316C66200D0A0025C9
S113219E302E316600202020202020200052696439
S11321AE206174006A65646573206C69702E2E2E2E
S11321BE0046726F6E743A00526561723A00636D36
S10521CE00000B
S9030000FC
