S02000005061726B696E67417373697374616E745F48432D535230342E737265635E
S11300000C94B5000C94FF010C94B7010C94D2002D
S11300100C94D2000C94D2000C94D2000C94D20014
S11300200C94D2000C94D2000C94D2000C94D20004
S11300300C94D2000C9447020C94D2000C94D2007D
S11300400C94D2000C94D2000C9401080C942F0848
S11300500C94D2000C94D2000C94D2000C94D200D4
S11300600C94D2000C94D2006E616E00696E66002E
S113007000407A10F35A00A0724E18090010A5D45B
S1130080E80000E87648170000E40B54020000CAB8
S11300909A3B000000E1F5050000809698000000FE
S11300A040420F000000A08601000000102700005D
S11300B00000E803000000006400000000000A00E3
S11300C0000000000100000000002C76D888DC67E6
S11300D04F0823DFC1DFAE59E1B1B796E5E3E4533E
S11300E0C63AE651997696E8E6C28426EB898C9B5B
S11300F062ED407C6FFCEFBC9C9F40F2BAA56FA5FB
S1130100F490055A2AF75C936B6CF9676DC11BFC7C
S1130110E0E40D47FEF520E6B500D0ED902E030097
S1130120943577050080841E080000204E0A0000E4
S113013000C80C333333330F986E12831141EF8DA3
S11301402114893BE65516CFFEE6DB18D1844B38E3
S11301501BF77C1D901DA4BBE424203284725E2214
S11301608100C9F124ECA1E53D2711241FBECFEF86
S1130170D8E0DEBFCDBF11E0A0E0B1E0ECEFFFE1DD
S113018002C005900D92AC37B107D9F721E0ACE776
S1130190B1E001C01D92AC3CB207E1F70E94250614
S11301A00C94FC0F0C940000FC01408121E030E031
S11301B002C0220F331F6A95E2F7242B208308958F
S11301C0FC01808121E030E002C0220F331F6A95D8
S11301D0E2F72095822380838081818128232183F3
S11301E00895FC01908121E030E002C0220F331F0A
S11301F06A95E2F72095292320830895FC01408124
S113020021E030E002C0220F331F6A95E2F7242B6D
S113021020830895FC01408121E030E002C0220FD8
S1130220331F6A95E2F7242720830895FC01808117
S113023090E002C0959587956A95E2F781700895DC
S1130240299A000029980895CF93C82F662311F0A6
S1130250289A01C02898549A559A569A579A5F98A2
S11302605E985D985C98CC230CF45F9AC6FD5E9A08
S1130270C5FD5D9AC4FD5C9A0E9420015F985E985A
S11302805D985C98C3FD5F9AC2FD5E9AC1FD5D9A5C
S1130290C0FD5C9A0E9420015C9A5D9A5E9A5F9A06
S11302A08AEF8A95F1F7CF91089560E00E942401C6
S11302B00895611104C080580E9455010895805426
S11302C00E945501089581E00E945501089561E05E
S11302D00E9424010895CF93DF93EC012196FC0141
S11302E08081882329F00E94670189918111FBCFC5
S11302F0DF91CF910895CF93C82F209A559A219AD0
S1130300549A559A569A579A8FE99FE00197F1F7B4
S113031000C000005D9A5C9A0E94200181EE94E086
S11303200197F1F700C000000E94200195E19A9521
S1130330F1F700000E94200185E18A95F1F70000A1
S11303405C980E94200195E19A95F1F7000088E2FB
S11303500E94550188E00E9455010E94630186E0D5
S11303600E9455018C2F0E945501CF9108951F9230
S11303700F920FB60F9211242F933F934F935F93D5
S11303806F937F938F939F93AF93BF93EF93FF9359
S113039016C06091800170918101809182019091D9
S11303A0830120E030E040E85FE30E949708609317
S11303B0800170938101809382019093830163E0B3
S11303C089E290E00E9416018111E3CF80918401BB
S11303D08F5F8093840181E080930101FF91EF910D
S11303E0BF91AF919F918F917F916F915F914F9149
S11303F03F912F910F900FBE0F901F9018951F9251
S11304000F920FB60F9211242F933F934F935F9344
S11304106F937F938F939F93AF93BF93EF93FF93C8
S113042016C060917C0170917D0180917E01909154
S11304307F0120E030E040E85FE30E94970860938A
S11304407C0170937D0180937E0190937F0162E033
S113045089E290E00E9416018111E3CF809184012A
S11304608F5F8093840181E080930101FF91EF917C
S1130470BF91AF919F918F917F916F915F914F91B8
S11304803F912F910F900FBE0F901F9018951F92C0
S11304900F920FB60F9211242F933F934F935F93B4
S11304A06F937F938F939F93AF93BF93EF93FF9338
S11304B064E085E290E00E940A01809185019091B8
S11304C086019093850080938400FF91EF91BF9102
S11304D0AF919F918F917F916F915F914F913F91D8
S11304E02F910F900FBE0F901F9018954F925F920F
S11304F06F927F928F929F92AF92BF92CF92DF9230
S1130500EF92FF920F931F93CF93DF93CDB7DEB794
S1130510C456D1090FB6F894DEBF0FBECDBF290172
S11305203A012FE632E143E25EE30E94310AC62E2D
S1130530D72E982E892E26EA39E04BE55DE3C301D8
S1130540B2010E94310AE62EF72E082F192F762FBA
S1130550272F3F2D402F512F6C2D7D2D892D982D28
S11305600E94030988232CF07E2C6F2C502E412EE0
S113057004C07C2C6D2C592C482C20E030E040EE3B
S113058050E46E2D7F2D802F912F0E940309882324
S113059064F020E030E040EE50E46C2D7D2D892D98
S11305A0982D0E94030988235CF464E085E290E0BE
S11305B00E94FE00EFE6F0E080818E7F808332C0EF
S11305C0BB24B39420E030E040E252E46E2D7F2D52
S11305D0802F912F0E942C0A18160CF0B12CBB20EE
S11305E0E1F0BB24B39420E030E040E252E46C2D0F
S11305F07D2D892D982D0E942C0A18160CF0B12CF3
S1130600BB2059F064E085E290E00E94F100EFE63F
S1130610F0E080818E7F808305C0EFE6F0E080818A
S1130620816080838F929F92DF92CF921F930F936A
S1130630FF92EF9284E191E09F938F93CE01019614
S11306405C019F938F930E947C0FC5010E948708D1
S11306501F930F93FF92EF9287E391E09F938F9301
S11306605E0193E3A90EB11CBF92AF920E947C0F6E
S113067060E081E00E94590187E491E00E946B01EF
S113068060E081E00E945901C5010E946B018F92D4
S11306909F92DF92CF9288E591E09F938F93BF92D0
S11306A0AF920E947C0F61E081E00E94590187E4CF
S11306B091E00E946B0161E081E00E945901C50153
S11306C00E946B010FB6F894DEBF0FBECDBF20E0D1
S11306D030E040EE50E46E2D7F2D802F912F0E944C
S11306E00309882324F487E00E946F07E7C0BB2432
S11306F0B39420E030E040EE50E46E2D7F2D802F47
S1130700912F0E942C0A18160CF0B12CBB2081F0FA
S113071020E030E040E251E46E2D7F2D802F912FB8
S11307200E940309882324F486E00E946F07C6C050
S1130730BB24B39420E030E040E251E46E2D7F2DE1
S1130740802F912F0E942C0A18160CF0B12CBB207C
S113075081F020E030E040E751E46E2D7F2D802FC2
S1130760912F0E940309882324F485E00E946F07D7
S1130770A5C0BB24B39420E030E040E751E46E2DE3
S11307807F2D802F912F0E942C0A18160CF0B12C6B
S1130790BB20B1F020E030E040EA51E46E2D7F2D23
S11307A0802F912F0E940309882354F484E00E942F
S11307B06F0780E29BEC90938601809385017EC055
S11307C0BB24B39420E030E040EA51E46E2D7F2D49
S11307D0802F912F0E942C0A18160CF0B12CBB20EC
S11307E0B1F020E030E048EC51E46E2D7F2D802FF5
S11307F0912F0E940309882354F483E00E946F0719
S113080080EB93EB909386018093850157C0BB24C2
S1130810B39420E030E048EC51E46E2D7F2D802F1E
S1130820912F0E942C0A18160CF0B12CBB20B1F0A9
S113083020E030E040EF51E46E2D7F2D802F912F8A
S11308400E940309882354F482E00E946F0780E425
S11308509CE9909386018093850130C0BB24B394B6
S113086020E030E040EF51E46E2D7F2D802F912F5A
S11308700E942C0A18160CF0B12CBB20B1F020E019
S113088030E04CE052E46E2D7F2D802F912F0E949A
S11308900309882354F481E00E946F0780ED94E8F3
S11308A0909386018093850109C080E00E946F07C0
S11308B080E69DE6909386018093850120E030E0F8
S11308C040EA50E46C2D7D2D892D982D0E9403095A
S11308D0882324F487E00E94B807C3C011E020E015
S11308E030E040EA50E46C2D7D2D892D982D0E9436
S11308F02C0A18160CF010E0112381F020E030E0EF
S113090040E251E46C2D7D2D892D982D0E94030920
S1130910882324F486E00E94B807A3C011E020E0F5
S113092030E040E251E46C2D7D2D892D982D0E94FC
S11309302C0A18160CF010E0112381F020E030E0AE
S113094040E751E46C2D7D2D892D982D0E940309DB
S1130950882324F485E00E94B80783C011E020E0D6
S113096030E040E751E46C2D7D2D892D982D0E94B7
S11309702C0A18160CF010E0112381F020E030E06E
S113098040EA51E46C2D7D2D892D982D0E94030998
S1130990882324F484E00E94B80763C011E020E0B7
S11309A030E040EA51E46C2D7D2D892D982D0E9474
S11309B02C0A18160CF010E0112381F020E030E02E
S11309C048EC51E46C2D7D2D892D982D0E9403094E
S11309D0882324F483E00E94B80743C011E020E098
S11309E030E048EC51E46C2D7D2D892D982D0E942A
S11309F02C0A18160CF010E0112381F020E030E0EE
S1130A0040EF51E46C2D7D2D892D982D0E94030912
S1130A10882324F482E00E94B80723C011E020E078
S1130A2030E040EF51E46C2D7D2D892D982D0E94EE
S1130A302C0A18160CF010E0112381F020E030E0AD
S1130A404CE052E46C2D7D2D892D982D0E940309D4
S1130A50882324F481E00E94B80703C080E00E9448
S1130A60B80711E020E030E040EE50E4672D762D29
S1130A70852D942D0E942C0A18160CF010E01123D9
S1130A8099F020E030E040E251E4672D762D852D89
S1130A90942D0E94030988233CF480E392EF909301
S1130AA0860180938501B5C011E020E030E040E28A
S1130AB051E4672D762D852D942D0E942C0A18164D
S1130AC00CF010E0112399F020E030E040E751E40D
S1130AD0672D762D852D942D0E94030988233CF4DF
S1130AE080E992EE909386018093850192C011E093
S1130AF020E030E040E751E4672D762D852D942DDC
S1130B000E942C0A18160CF010E0112399F020E032
S1130B1030E040EA51E4672D762D852D942D0E9416
S1130B20030988233CF480E29BEC90938601809334
S1130B3085016FC011E020E030E040EA51E4672D08
S1130B40762D852D942D0E942C0A18160CF010E099
S1130B50112399F020E030E048EC51E4672D762D24
S1130B60852D942D0E94030988233CF480EB93EB9C
S1130B7090938601809385014CC011E020E030E021
S1130B8048EC51E4672D762D852D942D0E942C0A76
S1130B9018160CF010E0112399F020E030E040EF3B
S1130BA051E4672D762D852D942D0E940309882309
S1130BB03CF480E49CE9909386018093850129C0EC
S1130BC011E020E030E040EF51E4672D762D852DD3
S1130BD0942D0E942C0A18160CF010E0112399F0A1
S1130BE020E030E04CE052E4672D762D852D942DE5
S1130BF00E94030988233CF480ED94E890938601D5
S1130C008093850106C080E69DE6909386018093DB
S1130C1085018091850190918601CC59DF4F0FB6F3
S1130C20F894DEBF0FBECDBFDF91CF911F910F911E
S1130C30FF90EF90DF90CF90BF90AF909F908F90F8
S1130C407F906F905F904F9008958CE00E947B019D
S1130C5060E085E00E94590187E691E00E946B0103
S1130C6061E082E00E9459018EE691E00E946B01EE
S1130C702FEF83ED90E3215080409040E1F700C0D6
S1130C8000000E94550787E690E00E94590863E03F
S1130C908AE290E00E94E00062E08AE290E00E9432
S1130CA0E00062E084E290E00E94D40063E084E229
S1130CB090E00E94D40062E085E290E00E94F1009E
S1130CC063E085E290E00E94F10064E084E290E059
S1130CD00E94D40064E085E290E00E94F100E1E823
S1130CE0F0E080818C7F8083808184608083EFE664
S1130CF0F0E0808181608083E9E6F0E080818C60AF
S1130D008083E99A808183608083E89A7894C1E043
S1130D10D0E0209101018C2F90910001913009F0D5
S1130D208D2F882309F444C08C2F213009F08D2F96
S1130D308823F1F187EC90E00197F1F700C00000FF
S1130D4062E085E290E00E94FE0095E39A95F1F757
S1130D50000062E085E290E00E94F100D09301017E
S1130D6080918401843021F5C0908001D09081016C
S1130D70E0908201F09083016091840170E080E052
S1130D8090E00E947C099B01AC01C701B6010E945E
S1130D90080960938001709381018093820190938C
S1130DA08301D0938401809100018F5F80930001BF
S1130DB0209101018C2F90910001923009F08D2F28
S1130DC0882309F444C08C2F213009F08D2F882307
S1130DD0F1F187EC90E00197F1F700C0000063E0C7
S1130DE085E290E00E94FE0095E39A95F1F70000F9
S1130DF063E085E290E00E94F100D09301018091CC
S1130E008401843021F5C0907C01D0907D01E09074
S1130E107E01F0907F016091840170E080E090E0B9
S1130E200E947C099B01AC01C701B6010E9408091C
S1130E3060937C0170937D0180937E0190937F0188
S1130E40D0938401809100018F5F80930001809191
S1130E500001833009F05DCF209180013091810140
S1130E60409182015091830160917C0170917D01D8
S1130E7080917E0190917F010E9476029093860179
S1130E808093850110928001109281011092820159
S1130E901092830110927C0110927D0110927E01C8
S1130EA010927F01C093000134CF63E087E290E0A9
S1130EB00E94D40060E087E290E00E94D40062E0E7
S1130EC087E290E00E94D40061E087E290E00E9413
S1130ED0D40064E087E290E00E94D4000895CF93A8
S1130EE0DF93E82FF0E0E55FFE4FD08160E088E219
S1130EF090E00E94F10062E088E290E00E94F1003C
S1130F0061E088E290E00E94F10085E08A95F1F7C3
S1130F100000C8E0D0FD06C060E088E290E00E94D6
S1130F20F10005C060E088E290E00E94FE0085E0E8
S1130F308A95F1F7000062E088E290E00E94FE00EA
S1130F4085E08A95F1F7000062E088E290E00E9473
S1130F50F100D695C150F1F661E088E290E00E947C
S1130F60FE0085E08A95F1F70000DF91CF910895A6
S1130F70CF93DF93E82FF0E0EE5FFE4FD08163E084
S1130F8088E290E00E94F10062E088E290E00E9432
S1130F90F10064E088E290E00E94F10085E08A9527
S1130FA0F1F70000C8E0D0FD06C063E088E290E0FD
S1130FB00E94F10005C063E088E290E00E94FE0018
S1130FC085E08A95F1F7000062E088E290E00E94F3
S1130FD0FE0085E08A95F1F7000062E088E290E087
S1130FE00E94F100D695C150F1F664E088E290E0E9
S1130FF00E94FE0085E08A95F1F70000DF91CF9111
S113100008951F920F920FB60F9211242F938F936E
S11310109F93EF93FF938091C0002091C6008C7141
S1131020E0918901EF5FEF7190918801E91739F040
S1131030E0938901F0E0E457FE4F208301C082E091
S113104090918701892B80938701FF91EF919F9164
S11310508F912F910F900FBE0F901F9018951F9294
S11310600F920FB60F9211248F939F93EF93FF93D8
S113107090918B0180918A01981769F0E0918A011F
S1131080EF5FEF71E0938A01F0E0E455FE4F808159
S11310908093C60005C0E1ECF0E080818F7D808301
S11310A0FF91EF919F918F910F900FBE0F901F9022
S11310B0189510928B0110928A0110928901109256
S11310C0880199231CF422E02093C0009078909327
S11310D0C5008093C40088E98093C10086E08093B2
S11310E0C200089520918B012F5F2F7190918A0186
S11310F02917E1F3E22FF0E0E455FE4F80832093BB
S11311008B01E1ECF0E08081806280830895CF93CD
S1131110DF93EC018881882331F021960E947208C4
S113112089918111FBCFDF91CF9108955058BB274E
S1131130AA270E94AE080C94F2090E94E40938F030
S11311400E94EB0920F039F49F3F19F426F40C9423
S1131150E1090EF4E095E7FB0C94DB09E92F0E940A
S1131160030A58F3BA17620773078407950720F038
S113117079F4A6F50C94250A0EF4E0950B2EBA2FFB
S1131180A02D0B01B90190010C01CA01A001112489
S1131190FF27591B99F0593F50F4503E68F11A1635
S11311A0F040A22F232F342F4427585FF3CF4695C6
S11311B037952795A795F0405395C9F77EF41F16E8
S11311C0BA0B620B730B840BBAF09150A1F0FF0FB2
S11311D0BB1F661F771F881FC2F70EC0BA0F621F9E
S11311E0731F841F48F4879577956795B795F7958E
S11311F09E3F08F0B0CF9395880F08F09927EE0F23
S11312009795879508950E94B70908F481E0089599
S11312100E941C090C94F2090E94EB0958F00E94E8
S1131220E40940F029F45F3F29F00C94DB095111E3
S11312300C94260A0C94E1090E94030A68F399238A
S1131240B1F3552391F3951B550BBB27AA276217BE
S11312507307840738F09F5F5F4F220F331F441FCB
S1131260AA1FA9F335D00E2E3AF0E0E832D09150FF
S11312705040E695001CCAF72BD0FE2F29D0660FEC
S1131280771F881FBB1F261737074807AB07B0E82F
S113129009F0BB0B802DBF01FF2793585F4F3AF035
S11312A09E3F510578F00C94DB090C94260A5F3FAD
S11312B0E4F3983ED4F3869577956795B795F795BB
S11312C09F5FC9F7880F911D9695879597F90895A3
S11312D0E1E0660F771F881FBB1F6217730784073F
S11312E0BA0720F0621B730B840BBA0BEE1F88F74E
S11312F0E0950895E89409C097FB3EF49095809595
S1131300709561957F4F8F4F9F4F9923A9F0F92FC7
S113131096E9BB279395F695879577956795B79545
S1131320F111F8CFFAF4BB0F11F460FF1BC06F5F2B
S11313307F4F8F4F9F4F16C0882311F096E911C03D
S1131340772321F09EE8872F762F05C0662371F05E
S113135096E8862F70E060E02AF09A95660F771F72
S1131360881FDAF7880F9695879597F90895990F4E
S11313700008550FAA0BE0E8FEEF16161706E8075B
S1131380F907C0F012161306E407F50798F0621B7C
S1131390730B840B950B39F40A2661F0232B242B51
S11313A0252B21F408950A2609F4A140A6958FEF70
S11313B0811D811D089597F99F6780E870E060E0C2
S11313C008959FEF80EC089500240A9416161706DA
S11313D018060906089500240A9412161306140622
S11313E005060895092E0394000C11F4882352F085
S11313F0BB0F40F4BF2B11F460FF04C06F5F7F4F3D
S11314008F4F9F4F089557FD9058440F551F59F023
S11314105F3F71F04795880F97FB991F61F09F3FDD
S113142079F087950895121613061406551FF2CF06
S11314304695F1DF08C0161617061806991FF1CF56
S113144086957105610508940895E894BB2766277D
S11314507727CB0197F908950E94B70908F48FEF15
S113146008950E94440A0C94F2090E94E40938F099
S11314700E94EB0920F0952311F00C94DB090C94E5
S1131480E10911240C94260A0E94030A70F3959F23
S1131490C1F3950F50E0551F629FF001729FBB2767
S11314A0F00DB11D639FAA27F00DB11DAA1F649F03
S11314B06627B00DA11D661F829F2227B00DA11DB6
S11314C0621F739FB00DA11D621F839FA00D611D3C
S11314D0221F749F3327A00D611D231F849F600D5D
S11314E0211D822F762F6A2F11249F5750409AF086
S11314F0F1F088234AF0EE0FFF1FBB1F661F771F12
S1131500881F91505040A9F79E3F510580F00C94DC
S1131510DB090C94260A5F3FE4F3983ED4F38695E6
S113152077956795B795F795E7959F5FC1F7FE2B7C
S1131530880F911D9695879597F90895A0E1B0E0DD
S1131540E4EAFAE00C941B0E7C011B016A01FC0125
S113155017821682838181FF44C39E012F5F3F4F10
S11315603901F7019381F10193FD859193FF8191F5
S11315701F01882309F431C3853239F493FD859121
S113158093FF81911F01853239F4B70190E00E94E5
S1131590400F56016501E5CF10E0512C912CFFE17D
S11315A0F915D8F08B3279F038F4803279F083323F
S11315B0A1F4F92DF0612EC08D3261F0803369F40D
S11315C0292D21602DC0392D3260932E892D846000
S11315D0982E2AC0E92DE86015C097FC2DC020ED97
S11315E0280F2A3088F496FE06C03AE0139F200D97
S11315F01124122F19C08AE0589E200D1124522E56
S1131600E92DE0629E2E10C08E3231F496FCE5C2C4
S1131610F92DF0649F2E08C08C3621F4292D206802
S1131620922E02C0883641F4F10193FD859193FF17
S113163081911F018111B3CF9BEB980F933020F45C
S1131640992D9061805E07C09BE9980F933008F054
S113165066C1992D9F7E96FF16E09F73992E85365D
S113166019F49064992E08C0863621F4392F306815
S1131670932E02C01111115097FE07C01C3350F471
S113168044244394410E27E00BC0183038F027E07F
S113169017E005C027E09CE3492E02C0212F412C0E
S11316A0560184E0A80EB11CF6016081718182812B
S11316B09381042DA3010E94520E6C01F981FC87D1
S11316C0F0FF02C0F3FF06C091FC06C092FE06C004
S11316D000E205C00DE203C00BE201C000E08C850E
S11316E08C7019F001115AC29BC297FE10C04C0CA9
S11316F0FC85F4FF04C08A81813309F44A941414EC
S113170074F528E0241578F588E0482E2CC096FC62
S11317102AC0812F90E08C159D059CF03CEFC316E8
S11317203FEFD30674F0892D8068982E0AC0E2E05A
S1131730F0E0EC0FFD1FE10FF11D8081803319F4FF
S113174011501111F4CF97FE0EC044244394410E5E
S1131750812F90E0C816D9062CF41C1904C0442427
S1131760439401C010E097FE06C01C141D0434F419
S1131770C601019605C085E090E002C081E090E0DA
S113178001110196112331F0212F30E02F5F3F4FDB
S1131790820F931F252D30E08217930714F4581AF3
S11317A001C0512C892D897049F4552039F0B701B5
S11317B080E290E00E94400F5A94F7CF002329F072
S11317C0B701802F90E00E94400F93FC09C0552080
S11317D039F0B70180E390E00E94400F5A94F7CFAC
S11317E097FE4CC04601D7FE02C0812C912CC60145
S11317F088199909F301E80FF91FFE87ED8796010F
S113180024193109388B2F87012F10E01195019588
S113181011093FEF8316930629F4B7018EE290E095
S11318200E94400FC814D9044CF08F8598898815FC
S1131830990524F4ED85FE85818101C080E3F1E002
S11318408F1A91082D853E852F5F3F4F3E872D8748
S1131850801691062CF0B70190E00E94400FD9CF7A
S1131860C814D90441F49A81963320F4953319F4B9
S11318703C8534FF81E3B70190E04EC08A81813317
S113188019F09C859F7E9C87B70190E00E94400FD1
S1131890111105C094FC18C085E690E017C0B7018B
S11318A08EE290E00E94400F1E5F82E001E0080F8C
S11318B0F301E80FF11D8081B70190E00E94400F11
S11318C0802F0113F3CFE6CF85E490E0B7010E94A7
S11318D0400FD7FC06C0C114D10441F4EC85E4FFE9
S11318E005C0D194C194D1088DE201C08BE2B70147
S11318F090E00E94400F80E32AE0C216D1042CF04D
S11319008F5FFAE0CF1AD108F7CFB70190E00E94B9
S1131910400FB701C601C0960E94400F54C18336E0
S113192031F0833779F0833509F056C020C0560171
S113193032E0A30EB11CF6018081898301E010E03E
S1131940630112C05601F2E0AF0EB11CF601C08073
S1131950D18096FE03C0612F70E002C06FEF7FEF6D
S1131960C6010E94350F8C01F92DFF7714C0560172
S113197022E0A20EB11CF601C080D18096FE03C005
S1131980612F70E002C06FEF7FEFC6010E942A0F43
S11319908C01F92DF0689F2EF3FD1AC0852D90E07F
S11319A008171907A8F4B70180E290E00E94400FDD
S11319B05A94F4CFF60197FC859197FE81916F01BB
S11319C0B70190E00E94400F51105A940150110940
S11319D00115110579F7F7C0843611F0893661F5E0
S11319E0560197FE09C024E0A20EB11CF6016081E5
S11319F07181828193810AC0F2E0AF0EB11CF601BD
S1131A0060817181072E000C880B990BF92DFF76EC
S1131A109F2E97FF09C090958095709561957F4F93
S1131A208F4F9F4FF0689F2E2AE030E0A3010E9461
S1131A309E0FC82EC6183FC0092D853721F40F7E8E
S1131A402AE030E01DC0097F8F3691F018F4883504
S1131A5059F0C3C0803719F0883711F0BEC0006157
S1131A6004FF09C0046007C094FE08C0066006C0F5
S1131A7028E030E005C020E130E002C020E132E09F
S1131A80560107FF09C084E0A80EB11CF60160816D
S1131A9071818281938108C0F2E0AF0EB11CF6011E
S1131AA06081718180E090E0A3010E949E0FC82EA6
S1131AB0C6180F77902E96FE0BC0092D0E7FC11607
S1131AC050F494FE0AC092FC08C0092D0E7E05C095
S1131AD0DC2C092D03C0DC2C01C0D12E04FF0DC069
S1131AE0FE01EC0DF11D8081803311F4097E09C0E3
S1131AF002FF06C0D394D39404C0802F867809F0E3
S1131B00D39403FD11C000FF06C01C2DD51480F42E
S1131B10150D1D190DC0D51458F4B70180E290E0DD
S1131B200E94400FD394F7CFD51410F45D1801C070
S1131B30512C04FF10C0B70180E390E00E94400FD5
S1131B4002FF17C001FD03C088E790E002C088E5EA
S1131B5090E0B7010CC0802F867859F001FF02C0D5
S1131B608BE201C080E207FD8DE2B70190E00E94A4
S1131B70400FC11638F4B70180E390E00E94400F93
S1131B801150F7CFCA94F301EC0DF11D8081B70118
S1131B9090E00E94400FC110F5CF15C0F4E0F51598
S1131BA060F584E0581A93FE1FC0011127C02C85EC
S1131BB023FF2AC008E610E0392D3071932EF80176
S1131BC08491811124C0552009F4E4CCB70180E24A
S1131BD090E00E94400F5A94F6CFF70186819781D6
S1131BE026C08FEF9FEF23C0B70180E290E00E94F0
S1131BF0400F5A945110F8CFD8CF512CB701802FF1
S1131C0090E00E94400FD3CF0CE610E0D5CF9110A6
S1131C108052B70190E00E94400F0F5F1F4FCFCF5B
S1131C2023E0251510F483E0BDCF512CC0CF60967E
S1131C30E2E10C94370E2F923F924F925F926F9293
S1131C407F928F929F92AF92BF92CF92DF92EF9248
S1131C50FF920F931F93CF93DF93CDB7DEB7CA1BC9
S1131C60DB0B0FB6F894DEBF0FBECDBF09942A88F4
S1131C70398848885F846E847D848C849B84AA849C
S1131C80B984C884DF80EE80FD800C811B81AA8129
S1131C90B981CE0FD11D0FB6F894DEBF0FBECDBFF4
S1131CA0ED010895283008F027E03327DA01990F71
S1131CB0311D87FD916000966105710539F432602C
S1131CC02E5F3D9330E32A95E1F708959F3F30F06E
S1131CD080387105610509F03C5F3C5F3D939130AC
S1131CE008F08068911DDF93CF931F930F93FF92A9
S1131CF0EF92192F987F9695E92F96959695E90F6F
S1131D00FF27E653FF4F99273327EE24FF24A7012B
S1131D10E70105900894079428F4360FE71EF81E8F
S1131D20491F511D660F771F881F991F0694A1F73D
S1131D300590079428F4E70EF81E491F561FC11D8D
S1131D40770F881F991F661F0694A1F705900794C3
S1131D5028F4F80E491F561FC71FD11D880F991F5D
S1131D60661F771F0694A1F70590079420F4490F86
S1131D70561FC71FD81F990F661F771F881F069409
S1131D80A9F784911095177041F0D695C79557958A
S1131D904795F794E7941A95C1F7E0E7F0E0689463
S1131DA01590159135916591959105907FE2739504
S1131DB0E118F10A430B560BC90BD009C0F7E10C2B
S1131DC0F11E431F561FC91FD01D7EF4703311F43A
S1131DD08A95E6CFE894015030F0080F0AF4002702
S1131DE0021708F4202F2395022F7A3328F079E381
S1131DF07D932A95E9F710C07D932A9589F6069478
S1131E0097956795379517951794E118F10A430B41
S1131E10560BC90BD00998F023957E9173957A33AC
S1131E2008F070E37C932013B8F77E9170617D9382
S1131E3030F0839571E37D9370E32A95E1F71124E3
S1131E40EF90FF900F911F91CF91DF91992787FD1C
S1131E5090950895FC010590615070400110D8F7E9
S1131E60809590958E0F9F1F0895FC0161507040DE
S1131E7001900110D8F7809590958E0F9F1F0895BB
S1131E800F931F93CF93DF93FB01238121FD03C0A5
S1131E908FEF9FEF2CC022FF16C04681578124810B
S1131EA035814217530744F4A081B1819D012F5F0E
S1131EB03F4F318320838C93268137812F5F3F4F9F
S1131EC03783268314C08B01EC01FB010084F18568
S1131ED0E02D0995892BE1F6D80116968D919C91F8
S1131EE01797019617969C938E931697CE01DF91C0
S1131EF0CF911F910F910895AEE0B0E0E2E8FFE0CA
S1131F000C94290E0D891E8986E08C831A8309831B
S1131F108FEF9FE79E838D83AE01475E5F4F6F898E
S1131F20788DCE0101960E949E0AEF81F885E00F1C
S1131F30F11F10822E96E4E00C94450EFA01AA27B4
S1131F40283051F1203181F1E8946F936E7F6E5FF8
S1131F507F4F8F4F9F4FAF4FB1E03ED0B4E03CD0A6
S1131F60670F781F891F9A1FA11D680F791F8A1F89
S1131F70911DA11D6A0F711D811D911DA11D20D0F0
S1131F8009F468943F912AE0269F11243019305DAA
S1131F903193DEF6CF010895462F4770405D41939B
S1131FA0B3E00FD0C9F7F6CF462F4F70405D4A33E8
S1131FB018F0495D31FD4052419302D0A9F7EACFB0
S1131FC0B4E0A6959795879577956795BA95C9F7DF
S1131FD000976105710508959B01AC010A2E0694D2
S1131FE05795479537952795BA95C9F7620F731F8B
S10F1FF0841F951FA01D0895F894FFCFD6
S1131FFC0101000103070F1F3F7FFF000103070FBF
S113200C1F3F7FFF46726F6E743A2025302E326C60
S113201C6620207C7C2020526561723A2025302E6B
S113202C326C66200D0A0046726F6E743A202530AD
S113203C2E326620636D00202020202020202020BA
S113204C2020202020202000526561723A20253067
S113205C2E326620636D00526964206174006A65D7
S10F206C646573206C69702E2E2E000039
S9030000FC
