S00E00006932634C43442E7372656345
S11300000C9434000C9451000C9451000C94510045
S11300100C9451000C9451000C9451000C94510018
S11300200C9451000C9451000C9451000C94510008
S11300300C9451000C9451000C9451000C945100F8
S11300400C9451000C9451000C9451000C945100E8
S11300500C9451000C9451000C9451000C945100D8
S11300600C9451000C94510011241FBECFEFD8E022
S1130070DEBFCDBF11E0A0E0B1E0ECEEF3E002C0E2
S113008005900D92A432B107D9F721E0A4E2B1E0C2
S113009001C01D92A732B207E1F70E9475010C94CA
S11300A0F4010C940000EF92FF920F931F93CF93EF
S11300B0DF937B01142F880F0E94B201811112C0BB
S11300C0112391F0E7011150012F10E00F5F1F4F32
S11300D00E0D1F1D89910E94E201C017D107D1F7AF
S11300E0C0E003C0C1E001C0C0E00E94D9018C2F70
S11300F0DF91CF911F910F91FF90EF9008950F938F
S11301001F93CF93DF9300D000D01F92CDB7DEB7FB
S1130110082F683071F4811102C080E001C088E0CA
S11301208093000141E060E071E087E20E945300A7
S113013026C080910001162F182B1983802F807FF1
S11301408460812B8A838B7F8B8320E1029FC00193
S11301501124812B84608C838B7F8D8345E0BE01C9
S11301606F5F7F4F87E20E94530010FD08C0033089
S113017030F4E3EFF1E03197F1F700C000000F90A5
S11301800F900F900F900F90DF91CF911F910F91CF
S11301900895CF93DF93D82FC62FE62FF0E0EF5FBB
S11301A0FE4F982F9068808160E0892B0E947F0029
S11301B0D0932501C0932601DF91CF91089560E08B
S11301C081E00E947F00109226011092250108957B
S11301D0CF93C82F9091250180912401981718F48A
S11301E0CA3059F414C0609126016F5F60932601F0
S11301F080E00E94C900CA3091F0809125018F5F90
S11302008093250161E08C2F0E947F0008C06091DB
S113021026016F5F6093260180E00E94C900CF91A0
S11302200895CF93DF93EC018881882331F02196E0
S11302300E94E80089918111FBCFDF91CF9108954D
S1130240DF92EF92FF920F931F93CF93DF9300D02F
S113025000D000D0CDB7DEB7D82E86E0E5E0F1E0DF
S1130260DE01119601900D928A95E1F780E1809369
S11302702401E1E0F1E08081805F82838181805FFD
S113028083830E94AC018BE49DE10197F1F700C0E8
S113029000008E010F5F1F4F7E0197E0E90EF11CF5
S11302A060E0F80181918F010E947F0081EE94E06B
S11302B00197F1F700C000000E151F0589F760E0F3
S11302C08D2D0E947F0026960FB6F894DEBF0FBED8
S11302D0CDBFDF91CF911F910F91FF90EF90DF90F1
S11302E0089568E00E947F00089582E00E94200142
S11302F080E00E9471012FEF89E698E1215080404F
S11303009040E1F700C0000081E00E9471012FEFEE
S113031089E698E1215080409040E1F700C0000058
S11303200E94DF0061E081E00E94C9008BE091E05F
S11303300E9411012FEF83ED90E321508040904003
S1130340E1F700C0000060E081E00E94C90087E19D
S113035091E00E941101E4CF1092B9008CE08093E7
S1130360B800089594EA9093BC00ECEBF0E090811F
S11303709923ECF79091B900987F983011F090315F
S1130380A1F48093BB0084E88093BC00ECEBF0E024
S113039080818823ECF79091B900987F983139F0E7
S11303A081E0903429F480E0089581E0089580E0AC
S11303B0089584E98093BC00ECEBF0E0808184FD37
S11303C0FDCF08958093BB0084E88093BC00ECEBE0
S11303D0F0E080818823ECF79091B900987F81E068
S10F03E0983209F480E00895F894FFCFEF
S11303EC0880C000003332280C06015365636F6E1D
S11303FC64204C696E650048656C6C6F20576F7295
S107040C6C64000018
S9030000FC
