S00B000050574D2E7372656325
S11300000C9434000C943E000C943E000C943E007E
S11300100C943E000C943E000C943E000C943E0064
S11300200C943E000C943E000C943E000C943E0054
S11300300C943E000C943E000C943E000C943E0044
S11300400C943E000C943E000C943E000C943E0034
S11300500C943E000C943E000C943E000C943E0024
S11300600C943E000C943E0011241FBECFEFD8E048
S1130070DEBFCDBF0E944C000C9460000C940000C5
S1130080FC01408121E030E002C0220F331F6A9559
S1130090E2F7242B2083089566E08AE290E00E9430
S11300A0400086EE87BD84B5806C84BD84B58360D2
S11300B084BD85B5856085BD85B58D7F85BDFFCF44
S10700C0F894FFCFDE
S9030000FC
